S015000046696E616C5F50726F6A6563742E73726563EF
S11300000C942A000C948A020C9447000C94470028
S11300100C9447000C9447000C9447000C94470040
S11300200C9447000C9447000C9447000C94470030
S11300300C9447000C9447000C9447000C94470020
S11300400C9447000C9447000C9447000C94470010
S11300500C94470011241FBECFE5D4E0DEBFCDBF12
S113006011E0A0E6B0E0E0EBF9E002C005900D92EB
S1130070AA38B107D9F722E0AAE8B1E001C01D927D
S1130080A730B207E1F70E941E020C94D6040C9428
S1130090000082BB89EF90E00197F1F700C00000F7
S11300A084E088BB89EF90E00197F1F700C000007D
S11300B018BA83EC99E00197F1F700C000000895A5
S11300C0CF93C82F807F0E94490089EF90E0019769
S11300D0F1F700C000008C2F8295807F0E944900B8
S11300E089EF90E00197F1F700C00000CF910895E7
S11300F082BB84E188BB89EF90E00197F1F700C0EF
S1130100000080E188BB83EC99E00197F1F700C01F
S113011000000895CF93C82F807F0E94780089EF54
S113012090E00197F1F700C000008C2F8295807F4A
S11301300E94780089EF90E00197F1F700C0000079
S1130140CF9108950F931F93CF93DF938C01C0E059
S1130150D0E009C00E948A002196C031D10519F46B
S113016080EC0E946000F80181918F018111F2CF2F
S1130170DF91CF911F910F910895615071098130E2
S1130180910529F480E8860F0E9460000895029783
S113019021F480EC860F0E946000089581E00E94A3
S11301A06000089582E00E94600089EF90E001976A
S11301B0F1F700C0000088E20E94600089EF90E03F
S11301C00197F1F700C000008CE00E94600089EF05
S11301D090E00197F1F700C0000086E00E94600003
S11301E089EF90E00197F1F700C0000080E80E94D9
S11301F0600089EF90E00197F1F700C0000080E60D
S113020090E00E94A20083ED90E30197F1F700C013
S113021000000E94CE00089585BB89EF90E001970D
S1130220F1F700C0000080E288BB89EF90E00197FD
S1130230F1F700C0000018BA83EC99E00197F1F7D8
S113024000C000000895CF93C82F807F0E940C0146
S113025089EF90E00197F1F700C000008C2F8295A0
S1130260807F0E940C0189EF90E00197F1F700C0B4
S11302700000CF91089585BB80EA88BB89EF90E0A8
S11302800197F1F700C0000080E888BB83EC99E097
S11302900197F1F700C000000895CF93C82F807F25
S11302A00E943B0189EF90E00197F1F700C0000044
S11302B08C2F8295807F0E943B0189EF90E001970B
S11302C0F1F700C00000CF9108950F931F93CF93CF
S11302D0DF938C01C0E0D0E009C00E944D0121965B
S11302E0C031D10519F480EC0E942301F8018191F9
S11302F08F018111F2CFDF91CF911F910F9108955A
S1130300615071098130910529F480E8860F0E94BB
S113031023010895029721F480EC860F0E942301A3
S1130320089581E00E942301089582E00E94230140
S113033089EF90E00197F1F700C0000088E20E9485
S1130340230189EF90E00197F1F700C000008CE0F1
S11303500E94230189EF90E00197F1F700C00000AB
S113036086E00E94230189EF90E00197F1F700C035
S1130370000080E80E94230189EF90E00197F1F7E3
S113038000C000008BE790E00E94650183ED90E3DC
S11303900197F1F700C000000E94910108953E9A70
S11303A086B1876086B9379A61E070E081E090E0B9
S11303B00E94800186E990E00E94650183ED90E34C
S11303C00197F1F700C000000E9491010895369A48
S11303D03699FECF84B195B1089590E02DEC9F5FDE
S11303E0829F812D1124869586958695C1F7892F44
S11303F00895CF93C82F0E94ED01833058F04AE04E
S113040050E06EE871E08C2F90E00E9496040E9408
S1130410650112C04AE050E06EE871E08C2F90E074
S11304200E9496040E94650184ED90E00E9465019B
S113043084ED90E00E946501CF9108958FEF84BB15
S113044087BB80EF81BB0E9495010E94D2000E946D
S1130450CF010E94B5028A98D39A0E94410361E0B9
S113046070E081E090E00E94800180EB90E00E94C7
S1130470650161E070E082E090E00E9480018CEB15
S113048090E00E94650161E070E081E090E00E94EC
S1130490BD008AEC90E00E94A20061E070E082E07E
S11304A090E00E94BD0086ED90E00E94A2000E94B0
S11304B0E9020E9415030E945B038AE18A95F1F721
S11304C000C06CE070E081E090E00E9480016091E7
S11304D08A0170918B0180E090E00E94080429E277
S11304E03CE349EE53E40E9467030E94D903862F3C
S11304F00E94F9016EE070E082E090E00E948001C9
S11305000E94E70199230CF40196959587950E9422
S1130510F901D1CF1F920F920FB60F9211248F932E
S11305209F93B89A98B381E0892788BB80918C0106
S1130530813061F41EBC8CB59DB590938B01809382
S11305408A011DBC1CBC10928C0108C0811106C01C
S11305508EB581608EBD81E080938C019F918F91D7
S11305600F900FBE0F901F9018958AB188618AB9B9
S113057080B5866880BD83E389B910BC80EE90E0C5
S11305800E94A20083ED90E30197F1F700C0000000
S11305900E94CE0008955F9BFECF8CB108955D9BB1
S11305A0FECF8CB908950F931F93CF93FC018081E4
S11305B0882359F08F01C0E00E94CF02CF5FF80179
S11305C0EC0FF11D80818111F7CFCF911F910F9115
S11305D008956BE070E081E090E00E94BD008BEF35
S11305E090E00E94D3020E94CB028093F2010E9409
S11305F0CF029091F2019D3059F080918D01E82F46
S1130600F0E0ED50FE4F90838F5F80938D01EBCF30
S1130610E0918D01F0E0ED50FE4F108210928D01BB
S113062083EF91E00E94A20008956AE070E082E006
S113063090E00E94BD0081E291E00E94D3020E94FA
S1130640CB028093F2010E94CF029091F2019D307F
S113065059F080918D01E82FF0E0ED50FE4F90832A
S11306608F5F80938D01EBCFE0918D01F0E0ED5031
S1130670FE4F108210928D0183EF91E00E94A20040
S1130680089585B7816085BF8BB780648BBF7894EC
S113069061E070E081E090E00E94800189E691E0F1
S11306A00E9465018FE493EC0197F1F700C000000C
S11306B00E9491010895D39883E08A95F1F7000090
S11306C0D39A83E08A95F1F70000D39808950E94A5
S11306D07B030C945C040E94550458F00E944E0461
S11306E040F029F45F3F29F00C94450451110C9417
S11306F090040C944B040E946D0468F39923B1F3A5
S1130700552391F3951B550BBB27AA276217730733
S1130710840738F09F5F5F4F220F331F441FAA1FC7
S1130720A9F335D00E2E3AF0E0E832D09150504083
S1130730E695001CCAF72BD0FE2F29D0660F771F31
S1130740881FBB1F261737074807AB07B0E809F017
S1130750BB0B802DBF01FF2793585F4F3AF09E3F9C
S1130760510578F00C9445040C9490045F3FE4F335
S1130770983ED4F3869577956795B795F7959F5FDF
S1130780C9F7880F911D9695879597F90895E1E02B
S1130790660F771F881FBB1F621773078407BA078A
S11307A020F0621B730B840BBA0BEE1F88F7E095E5
S11307B008950E94750488F09F5798F0B92F9927DF
S11307C0B751B0F0E1F0660F771F881F991F1AF038
S11307D0BA95C9F714C0B13091F00E948F04B1E00A
S11307E008950C948F04672F782F8827B85F39F009
S11307F0B93FCCF3869577956795B395D9F73EF4D1
S113080090958095709561957F4F8F4F9F4F089578
S1130810E89409C097FB3EF4909580957095619596
S11308207F4F8F4F9F4F9923A9F0F92F96E9BB274C
S11308309395F695879577956795B795F111F8CFC8
S1130840FAF4BB0F11F460FF1BC06F5F7F4F8F4F33
S11308509F4F16C0882311F096E911C0772321F029
S11308609EE8872F762F05C0662371F096E8862FC1
S113087070E060E02AF09A95660F771F881FDAF718
S1130880880F9695879597F9089597F99F6780E85B
S113089070E060E008959FEF80EC089500240A94CE
S11308A01616170618060906089500240A94121647
S11308B01306140605060895092E0394000C11F47A
S11308C0882352F0BB0F40F4BF2B11F460FF04C027
S11308D06F5F7F4F8F4F9F4F089557FD9058440F80
S11308E0551F59F05F3F71F04795880F97FB991F8B
S11308F061F09F3F79F08795089512161306140648
S1130900551FF2CF4695F1DF08C0161617061806D4
S1130910991FF1CF86957105610508940895E894AF
S1130920BB2766277727CB0197F9089545325105F0
S113093020F4423010F00C94A104FB011082CB018E
S11309400895BB274A3031F4992322F4BDE29095EF
S113095081959F4F0C94AD04BB27FB015527AA2713
S1130960880F991FAA1FA41710F0A41B8395505138
S1130970B9F7A05DAA3308F0A95DA193009779F7B0
S1130980B111B1931192CB010C94C604DC01FC01AA
S1130990672F71917723E1F7329704C07C916D93AF
S11309A070836291AE17BF07C8F30895F894FFCF20
S11309B04C43443120696E697469616C697A656479
S11309C020636F72726563746C79004C4344302009
S11309D0696E697469616C697A656420636F7272A7
S11309E06563746C790041444320696E697469617C
S11309F06C697A656420636F72726563746C7900E4
S1130A00556C747261736F6E69633A0054656D70EE
S1130A1020696E2063656C693A0054696D65206CC9
S1130A206566743A200074696D65206E6F773A00CC
S1130A305541525420696E697469616C697A6564C0
S1130A4020636F72726563746C79003E3E20456E5C
S1130A507465722063757272656E742074696D6555
S1130A60206C65667420696E20686F757273200A45
S1130A70003E3E20456E7465722063757272656E29
S1130A80742074696D652061732058583A58582051
S1130A900A003E3E20456E74657220446973746199
S1130AA06E6365206C6566742074696C6C20617279
S1130AB0726976616C3A200A00496E7465727275C7
S1130AC0707420696E697469616C697A6564206305
S10D0AD06F72726563746C790000A4
S9030000FC
